{
  "contractName": "Faucet",
  "abi": [
    {
      "inputs": [],
      "name": "numOfFounters",
      "outputs": [
        {
          "internalType": "uint256",
          "name": "",
          "type": "uint256"
        }
      ],
      "stateMutability": "view",
      "type": "function",
      "constant": true
    },
    {
      "inputs": [],
      "name": "owner",
      "outputs": [
        {
          "internalType": "address",
          "name": "",
          "type": "address"
        }
      ],
      "stateMutability": "view",
      "type": "function",
      "constant": true
    },
    {
      "inputs": [],
      "name": "test5",
      "outputs": [
        {
          "internalType": "uint256",
          "name": "",
          "type": "uint256"
        }
      ],
      "stateMutability": "pure",
      "type": "function",
      "constant": true
    },
    {
      "inputs": [],
      "name": "testNum",
      "outputs": [
        {
          "internalType": "uint256",
          "name": "",
          "type": "uint256"
        }
      ],
      "stateMutability": "view",
      "type": "function",
      "constant": true
    },
    {
      "stateMutability": "payable",
      "type": "receive",
      "payable": true
    },
    {
      "inputs": [],
      "name": "emitLog",
      "outputs": [
        {
          "internalType": "bytes32",
          "name": "",
          "type": "bytes32"
        }
      ],
      "stateMutability": "pure",
      "type": "function",
      "constant": true
    },
    {
      "inputs": [],
      "name": "addFunds",
      "outputs": [],
      "stateMutability": "payable",
      "type": "function",
      "payable": true
    },
    {
      "inputs": [
        {
          "internalType": "uint256",
          "name": "withdrawAmount",
          "type": "uint256"
        }
      ],
      "name": "withdraw",
      "outputs": [],
      "stateMutability": "nonpayable",
      "type": "function"
    },
    {
      "inputs": [],
      "name": "test1",
      "outputs": [],
      "stateMutability": "nonpayable",
      "type": "function"
    },
    {
      "inputs": [],
      "name": "test2",
      "outputs": [],
      "stateMutability": "nonpayable",
      "type": "function"
    },
    {
      "inputs": [],
      "name": "getAllFunders",
      "outputs": [
        {
          "internalType": "address[]",
          "name": "",
          "type": "address[]"
        }
      ],
      "stateMutability": "view",
      "type": "function",
      "constant": true
    },
    {
      "inputs": [
        {
          "internalType": "uint8",
          "name": "index",
          "type": "uint8"
        }
      ],
      "name": "getFunderAtIndex",
      "outputs": [
        {
          "internalType": "address",
          "name": "",
          "type": "address"
        }
      ],
      "stateMutability": "view",
      "type": "function",
      "constant": true
    }
  ],
  "bytecode": "0x608060405234801561001057600080fd5b50336000806101000a81548173ffffffffffffffffffffffffffffffffffffffff021916908373ffffffffffffffffffffffffffffffffffffffff1602179055506103e8600181905550610b58806100696000396000f3fe6080604052600436106100a05760003560e01c80636fbbb55d116100645780636fbbb55d1461016b5780638da5cb5b146101965780639e11a56d146101c1578063a26759cb146101ec578063ae28f1ed146101f6578063f42c13bf14610221576100a7565b80630a93cf33146100ac5780631ad7be82146100e95780632e1a7d4d1461011457806366e41cb71461013d5780636b59084d14610154576100a7565b366100a757005b600080fd5b3480156100b857600080fd5b506100d360048036038101906100ce919061076d565b61024c565b6040516100e0919061088e565b60405180910390f35b3480156100f557600080fd5b506100fe61028c565b60405161010b9190610926565b60405180910390f35b34801561012057600080fd5b5061013b60048036038101906101369190610744565b61029e565b005b34801561014957600080fd5b50610152610335565b005b34801561016057600080fd5b506101696103c5565b005b34801561017757600080fd5b50610180610455565b60405161018d91906108a9565b60405180910390f35b3480156101a257600080fd5b506101ab61059b565b6040516101b8919061088e565b60405180910390f35b3480156101cd57600080fd5b506101d66105bf565b6040516101e39190610926565b60405180910390f35b6101f46105c5565b005b34801561020257600080fd5b5061020b6106e3565b6040516102189190610926565b60405180910390f35b34801561022d57600080fd5b506102366106e9565b60405161024391906108cb565b60405180910390f35b6000600460008360ff16815260200190815260200160002060009054906101000a900473ffffffffffffffffffffffffffffffffffffffff169050919050565b6000610296610711565b50600a905090565b8067016345785d8a00008111156102ea576040517f08c379a00000000000000000000000000000000000000000000000000000000081526004016102e190610906565b60405180910390fd5b3373ffffffffffffffffffffffffffffffffffffffff166108fc839081150290604051600060405180830381858888f19350505050158015610330573d6000803e3d6000fd5b505050565b60008054906101000a900473ffffffffffffffffffffffffffffffffffffffff1673ffffffffffffffffffffffffffffffffffffffff163373ffffffffffffffffffffffffffffffffffffffff16146103c3576040517f08c379a00000000000000000000000000000000000000000000000000000000081526004016103ba906108e6565b60405180910390fd5b565b60008054906101000a900473ffffffffffffffffffffffffffffffffffffffff1673ffffffffffffffffffffffffffffffffffffffff163373ffffffffffffffffffffffffffffffffffffffff1614610453576040517f08c379a000000000000000000000000000000000000000000000000000000000815260040161044a906108e6565b60405180910390fd5b565b6060600060025467ffffffffffffffff81111561049b577f4e487b7100000000000000000000000000000000000000000000000000000000600052604160045260246000fd5b6040519080825280602002602001820160405280156104c95781602001602082028036833780820191505090505b50905060005b600254811015610593576004600082815260200190815260200160002060009054906101000a900473ffffffffffffffffffffffffffffffffffffffff16828281518110610546577f4e487b7100000000000000000000000000000000000000000000000000000000600052603260045260246000fd5b602002602001019073ffffffffffffffffffffffffffffffffffffffff16908173ffffffffffffffffffffffffffffffffffffffff1681525050808061058b906109de565b9150506104cf565b508091505090565b60008054906101000a900473ffffffffffffffffffffffffffffffffffffffff1681565b60025481565b6000339050600360008273ffffffffffffffffffffffffffffffffffffffff1673ffffffffffffffffffffffffffffffffffffffff16815260200190815260200160002060009054906101000a900460ff166106e0578060046000600254815260200190815260200160002060006101000a81548173ffffffffffffffffffffffffffffffffffffffff021916908373ffffffffffffffffffffffffffffffffffffffff16021790555060026000815480929190610682906109de565b91905055506001600360008373ffffffffffffffffffffffffffffffffffffffff1673ffffffffffffffffffffffffffffffffffffffff16815260200190815260200160002060006101000a81548160ff0219169083151502179055505b50565b60015481565b60007f48656c6c6f20776f726c64000000000000000000000000000000000000000000905090565b60006064905090565b60008135905061072981610af4565b92915050565b60008135905061073e81610b0b565b92915050565b60006020828403121561075657600080fd5b60006107648482850161071a565b91505092915050565b60006020828403121561077f57600080fd5b600061078d8482850161072f565b91505092915050565b60006107a283836107ae565b60208301905092915050565b6107b78161098b565b82525050565b6107c68161098b565b82525050565b60006107d782610951565b6107e18185610969565b93506107ec83610941565b8060005b8381101561081d5781516108048882610796565b975061080f8361095c565b9250506001810190506107f0565b5085935050505092915050565b6108338161099d565b82525050565b600061084660218361097a565b915061085182610a56565b604082019050919050565b600061086960238361097a565b915061087482610aa5565b604082019050919050565b610888816109c7565b82525050565b60006020820190506108a360008301846107bd565b92915050565b600060208201905081810360008301526108c381846107cc565b905092915050565b60006020820190506108e0600083018461082a565b92915050565b600060208201905081810360008301526108ff81610839565b9050919050565b6000602082019050818103600083015261091f8161085c565b9050919050565b600060208201905061093b600083018461087f565b92915050565b6000819050602082019050919050565b600081519050919050565b6000602082019050919050565b600082825260208201905092915050565b600082825260208201905092915050565b6000610996826109a7565b9050919050565b6000819050919050565b600073ffffffffffffffffffffffffffffffffffffffff82169050919050565b6000819050919050565b600060ff82169050919050565b60006109e9826109c7565b91507fffffffffffffffffffffffffffffffffffffffffffffffffffffffffffffffff821415610a1c57610a1b610a27565b5b600182019050919050565b7f4e487b7100000000000000000000000000000000000000000000000000000000600052601160045260246000fd5b7f4f6e6c79206f776e65722063616e2063616c6c20746869732066756e6374696f60008201527f6e00000000000000000000000000000000000000000000000000000000000000602082015250565b7f43616e6e6f74207769746864726177206d6f7265207468616e20302e3120657460008201527f6865720000000000000000000000000000000000000000000000000000000000602082015250565b610afd816109c7565b8114610b0857600080fd5b50565b610b14816109d1565b8114610b1f57600080fd5b5056fea2646970667358221220b21cc92ab0bc6b1c1c57c89d3a8110d83ab50a763c6db4f36011b8473178f83f64736f6c63430008040033",
  "immutableReferences": {},
  "source": "// SPDX-License-Identifier: MIT\npragma solidity >=0.4.22 <0.9.0;\nimport \"./Owned.sol\";\nimport \"./Logger.sol\";\nimport \"./IFaucet.sol\";\n\ncontract Faucet is Owned, Logger, IFaucet {\n    uint256 public numOfFounters;\n\n    mapping(address => bool) private funders;\n    mapping(uint256 => address) private lutfunders;\n\n    function emitLog() public pure override returns (bytes32) {\n        return \"Hello world\";\n    }\n\n    receive() external payable {}\n\n    function addFunds() external payable override {\n        address funder = msg.sender;\n        if (!funders[funder]) {\n            lutfunders[numOfFounters] = funder;\n            numOfFounters++;\n            funders[funder] = true;\n        }\n    }\n\n    modifier limitWithdraw(uint256 withdrawAmount) {\n        require(\n            withdrawAmount <= 100000000000000000,\n            \"Cannot withdraw more than 0.1 ether\"\n        );\n        _;\n    }\n\n    function withdraw(uint256 withdrawAmount)\n        external\n        override\n        limitWithdraw(withdrawAmount)\n    {\n        payable(msg.sender).transfer(withdrawAmount);\n    }\n\n    function test1() external onlyOwner {\n        // some managing stuff that only admin should have access to\n    }\n\n    function test2() external onlyOwner {\n        // some managing stuff that only admin should have access to\n    }\n\n    function getAllFunders() external view returns (address[] memory) {\n        address[] memory _funders = new address[](numOfFounters);\n        for (uint256 i = 0; i < numOfFounters; i++) {\n            _funders[i] = lutfunders[i];\n        }\n        return _funders;\n    }\n\n    function getFunderAtIndex(uint8 index) external view returns (address) {\n        return lutfunders[index];\n    }\n}\n",
  "sourcePath": "/home/chris/training/solidity/faucet/contracts/FaucetContract.sol",
  "compiler": {
    "name": "solc",
    "version": "0.8.4+commit.c7e474f2.Emscripten.clang"
  },
  "schemaVersion": "3.4.7",
  "updatedAt": "2022-05-24T14:26:10.328Z",
  "networkType": "ethereum",
  "devdoc": {
    "kind": "dev",
    "methods": {},
    "version": 1
  },
  "userdoc": {
    "kind": "user",
    "methods": {},
    "version": 1
  }
}